{
  "contractName": "WeinbergerToken",
  "abi": [
    {
      "constant": true,
      "inputs": [],
      "name": "totalSupply",
      "outputs": [
        {
          "name": "",
          "type": "uint256"
        }
      ],
      "payable": false,
      "stateMutability": "view",
      "type": "function"
    },
    {
      "inputs": [],
      "payable": false,
      "stateMutability": "nonpayable",
      "type": "constructor"
    }
  ],
  "bytecode": "0x608060405234801561001057600080fd5b50620f4240600081905550609e806100296000396000f300608060405260043610603f576000357c0100000000000000000000000000000000000000000000000000000000900463ffffffff16806318160ddd146044575b600080fd5b348015604f57600080fd5b506056606c565b6040518082815260200191505060405180910390f35b600054815600a165627a7a72305820f13e1ed8ea6190201703b252a1cdb1f9813ca4b5cc9d12ff505375364d1f5b710029",
  "source": "pragma solidity ^0.4.23;\n\ncontract WeinbergerToken {\n\t// Constructor\n\t// Set the total number of tokens\n\t// Read the total number of tokens\n\n\tuint256 public totalSupply;\n\n\tfunction WeinbergerToken() public {\n\n\t\ttotalSupply = 1000000;\n\n\t}\t\n}",
  "sourcePath": "/Users/cweinberger/Desktop/dev/cweinberger/udemy_erc20/token_sale/contracts/WeinbergerToken.sol",
  "compiler": {
    "name": "solc",
    "version": "0.4.24+commit.e67f0147.Emscripten.clang"
  },
  "schemaVersion": "2.0.1",
  "updatedAt": "2018-08-19T10:40:19.165Z"
}